{
  "abi": [
    {
      "inputs": [
        {
          "internalType": "address",
          "name": "seller",
          "type": "address"
        },
        {
          "internalType": "address",
          "name": "token",
          "type": "address"
        },
        {
          "internalType": "uint256",
          "name": "tokenId",
          "type": "uint256"
        },
        {
          "internalType": "uint256",
          "name": "price",
          "type": "uint256"
        },
        {
          "internalType": "uint256",
          "name": "deadline",
          "type": "uint256"
        }
      ],
      "name": "constructMessageHash",
      "outputs": [
        {
          "internalType": "bytes32",
          "name": "",
          "type": "bytes32"
        }
      ],
      "stateMutability": "pure",
      "type": "function"
    }
  ],
  "bytecode": {
    "object": "0x61015b61003a600b82828239805160001a60731461002d57634e487b7160e01b600052600060045260246000fd5b30600052607381538281f3fe73000000000000000000000000000000000000000030146080604052600436106100355760003560e01c80631c936f8f1461003a575b600080fd5b6100aa6100483660046100d8565b6040516bffffffffffffffffffffffff19606087811b8216602084015286901b16603482015260488101849052606881018390526088810182905260009060a80160405160208183030381529060405280519060200120905095945050505050565b60405190815260200160405180910390f35b80356001600160a01b03811681146100d357600080fd5b919050565b600080600080600060a086880312156100f057600080fd5b6100f9866100bc565b9450610107602087016100bc565b9497949650505050604083013592606081013592608090910135915056fea26469706673582212207f54788a47c378a5057dfb332407eb59c157124fe51297a62c08e91b4453f0dc64736f6c63430008130033",
    "linkReferences": {}
  },
  "methodIdentifiers": {
    "constructMessageHash(address,address,uint256,uint256,uint256)": "1c936f8f"
  },
  "id": 22
}