{
  "abi": [
    {
      "inputs": [],
      "name": "ExceededFundingGoal",
      "type": "error"
    },
    {
      "inputs": [],
      "name": "InsufficientInput",
      "type": "error"
    },
    {
      "inputs": [],
      "name": "NotActive",
      "type": "error"
    },
    {
      "inputs": [],
      "name": "NotInDuration",
      "type": "error"
    },
    {
      "inputs": [],
      "name": "NotOwner",
      "type": "error"
    },
    {
      "inputs": [],
      "name": "TimeNotReached",
      "type": "error"
    },
    {
      "anonymous": false,
      "inputs": [
        {
          "indexed": true,
          "internalType": "uint256",
          "name": "_ID",
          "type": "uint256"
        },
        {
          "indexed": false,
          "internalType": "bool",
          "name": "isActive",
          "type": "bool"
        }
      ],
      "name": "CampaignEnds",
      "type": "event"
    },
    {
      "anonymous": false,
      "inputs": [
        {
          "indexed": true,
          "internalType": "uint256",
          "name": "_ID",
          "type": "uint256"
        },
        {
          "indexed": false,
          "internalType": "uint256",
          "name": "_fundingBalance",
          "type": "uint256"
        },
        {
          "indexed": false,
          "internalType": "address",
          "name": "contributor",
          "type": "address"
        },
        {
          "indexed": false,
          "internalType": "uint256",
          "name": "amount",
          "type": "uint256"
        }
      ],
      "name": "ContributeEth",
      "type": "event"
    },
    {
      "anonymous": false,
      "inputs": [
        {
          "indexed": false,
          "internalType": "uint256",
          "name": "id",
          "type": "uint256"
        },
        {
          "indexed": false,
          "internalType": "string",
          "name": "_title",
          "type": "string"
        },
        {
          "indexed": false,
          "internalType": "uint256",
          "name": "_fundingGoal",
          "type": "uint256"
        },
        {
          "indexed": false,
          "internalType": "uint256",
          "name": "_durationTime",
          "type": "uint256"
        }
      ],
      "name": "ProposeCampaign",
      "type": "event"
    },
    {
      "inputs": [
        {
          "internalType": "uint256",
          "name": "_ID",
          "type": "uint256"
        }
      ],
      "name": "campaignEnds",
      "outputs": [],
      "stateMutability": "nonpayable",
      "type": "function"
    },
    {
      "inputs": [
        {
          "internalType": "uint256",
          "name": "",
          "type": "uint256"
        },
        {
          "internalType": "address",
          "name": "",
          "type": "address"
        }
      ],
      "name": "contribute",
      "outputs": [
        {
          "internalType": "uint256",
          "name": "",
          "type": "uint256"
        }
      ],
      "stateMutability": "view",
      "type": "function"
    },
    {
      "inputs": [
        {
          "internalType": "uint256",
          "name": "_ID",
          "type": "uint256"
        }
      ],
      "name": "contributeEth",
      "outputs": [],
      "stateMutability": "payable",
      "type": "function"
    },
    {
      "inputs": [
        {
          "internalType": "uint256",
          "name": "_ID",
          "type": "uint256"
        }
      ],
      "name": "getContributors",
      "outputs": [
        {
          "components": [
            {
              "internalType": "address",
              "name": "contributor",
              "type": "address"
            },
            {
              "internalType": "uint256",
              "name": "balance",
              "type": "uint256"
            }
          ],
          "internalType": "struct CrowdfundPlat.Contributors[]",
          "name": "_contributors",
          "type": "tuple[]"
        }
      ],
      "stateMutability": "view",
      "type": "function"
    },
    {
      "inputs": [
        {
          "internalType": "uint256",
          "name": "_id",
          "type": "uint256"
        }
      ],
      "name": "getCrowd",
      "outputs": [
        {
          "components": [
            {
              "internalType": "string",
              "name": "title",
              "type": "string"
            },
            {
              "internalType": "uint256",
              "name": "fundingGoal",
              "type": "uint256"
            },
            {
              "internalType": "address",
              "name": "owner",
              "type": "address"
            },
            {
              "internalType": "uint256",
              "name": "durationTime",
              "type": "uint256"
            },
            {
              "internalType": "bool",
              "name": "isActive",
              "type": "bool"
            },
            {
              "internalType": "uint256",
              "name": "fundingBalance",
              "type": "uint256"
            },
            {
              "internalType": "address[]",
              "name": "contributors",
              "type": "address[]"
            }
          ],
          "internalType": "struct CrowdfundPlat.CrowdFund",
          "name": "_crowd",
          "type": "tuple"
        }
      ],
      "stateMutability": "view",
      "type": "function"
    },
    {
      "inputs": [
        {
          "internalType": "uint256",
          "name": "",
          "type": "uint256"
        },
        {
          "internalType": "address",
          "name": "",
          "type": "address"
        }
      ],
      "name": "hasContributed",
      "outputs": [
        {
          "internalType": "bool",
          "name": "",
          "type": "bool"
        }
      ],
      "stateMutability": "view",
      "type": "function"
    },
    {
      "inputs": [],
      "name": "id",
      "outputs": [
        {
          "internalType": "uint256",
          "name": "",
          "type": "uint256"
        }
      ],
      "stateMutability": "view",
      "type": "function"
    },
    {
      "inputs": [
        {
          "internalType": "string",
          "name": "_title",
          "type": "string"
        },
        {
          "internalType": "uint256",
          "name": "_fundingGoal",
          "type": "uint256"
        },
        {
          "internalType": "uint256",
          "name": "_durationTime",
          "type": "uint256"
        }
      ],
      "name": "proposeCampaign",
      "outputs": [
        {
          "internalType": "uint256",
          "name": "_id",
          "type": "uint256"
        }
      ],
      "stateMutability": "nonpayable",
      "type": "function"
    }
  ],
  "bytecode": {
    "object": "0x608060405234801561001057600080fd5b50610e7a806100206000396000f3fe60806040526004361061007b5760003560e01c806362a7381e1161004e57806362a7381e146101315780638b3f160814610151578063af640d0f1461017e578063b5b96ae01461019457600080fd5b8063352d722f146100805780633c1ab00f1461009557806360b0b0f0146100cb5780636258cd8714610111575b600080fd5b61009361008e3660046109df565b6101df565b005b3480156100a157600080fd5b506100b56100b03660046109df565b6103b2565b6040516100c291906109f8565b60405180910390f35b3480156100d757600080fd5b506101036100e6366004610a50565b600260209081526000928352604080842090915290825290205481565b6040519081526020016100c2565b34801561011d57600080fd5b5061010361012c366004610aa2565b6104cf565b34801561013d57600080fd5b5061009361014c3660046109df565b610581565b34801561015d57600080fd5b5061017161016c3660046109df565b61066a565b6040516100c29190610bac565b34801561018a57600080fd5b5061010360005481565b3480156101a057600080fd5b506101cf6101af366004610a50565b600360209081526000928352604080842090915290825290205460ff1681565b60405190151581526020016100c2565b600034116102005760405163f8b3bb6160e01b815260040160405180910390fd5b60008181526001602081905260409091206004810154909160ff90911615151461023d57604051634065aaf160e11b815260040160405180910390fd5b80600101543482600501546102529190610c74565b1115610271576040516302285fb560e51b815260040160405180910390fd5b806003015442111561029657604051631fd1a5cd60e31b815260040160405180910390fd5b6000828152600260209081526040808320338452909152812080543492906102bf908490610c74565b92505081905550348160050160008282546102da9190610c74565b9091555050600082815260036020908152604080832033845290915290205460ff1661034c57600681018054600181810183556000928352602080842090920180546001600160a01b0319163390811790915585845260038352604080852091855292529120805460ff191690911790555b600581015460008381526002602090815260408083203380855290835292819020548151948552918401929092529082015282907f641e0d946349dea2c0a7b1d1cced725c0bea588db875ec196860b61dea3e46f2906060015b60405180910390a25050565b60008181526001602052604090206006810154606091908067ffffffffffffffff8111156103e2576103e2610a8c565b60405190808252806020026020018201604052801561042757816020015b60408051808201909152600080825260208201528152602001906001900390816104005790505b50925060005b818110156104c757600083600601828154811061044c5761044c610c8d565b60009182526020808320909101548883526002825260408084206001600160a01b039092168085529183529283902054835180850190945281845291830182905287519093509091908790859081106104a7576104a7610c8d565b6020026020010181905250505080806104bf90610ca3565b91505061042d565b505050919050565b6000805481806104de83610ca3565b90915550506000805480825260016020526040909120909150806105028682610d45565b50600181018490556002810180546001600160a01b031916331790556105284284610c74565b600382015560048101805460ff191660011790556040517eb50d2a8d41842a065bbe382faaa470a71c0ddcbb9eca1f7de570f3167b568890610571908490889088908890610e05565b60405180910390a1509392505050565b60008181526001602081905260409091206004810154909160ff9091161515146105be57604051634065aaf160e11b815260040160405180910390fd5b60028101546001600160a01b031633146105eb576040516330cd747160e01b815260040160405180910390fd5b4281600301541115610610576040516371dcf04960e01b815260040160405180910390fd5b80600101548160050154101561062e576106298261080f565b610637565b61063782610978565b6040516000815282907fd33630e12cf2cf74d4761978e78eaca715245019d75a53759a6f36569350f021906020016103a6565b6106b56040518060e00160405280606081526020016000815260200160006001600160a01b031681526020016000815260200160001515815260200160008152602001606081525090565b60008281526001602052604090819020815160e081019092528054829082906106dd90610cbc565b80601f016020809104026020016040519081016040528092919081815260200182805461070990610cbc565b80156107565780601f1061072b57610100808354040283529160200191610756565b820191906000526020600020905b81548152906001019060200180831161073957829003601f168201915b5050509183525050600182015460208083019190915260028301546001600160a01b031660408084019190915260038401546060840152600484015460ff1615156080840152600584015460a084015260068401805482518185028101850190935280835260c09094019391929091908301828280156107ff57602002820191906000526020600020905b81546001600160a01b031681526001909101906020018083116107e1575b5050505050815250509050919050565b600081815260016020908152604080832060068101805483518186028101860190945280845291949390919083018282801561087457602002820191906000526020600020905b81546001600160a01b03168152600190910190602001808311610856575b5050505050905060005b815181101561096857600082828151811061089b5761089b610c8d565b60209081029190910181015160008781526002835260408082206001600160a01b038416835290935291822054600587018054929450909283926108e0908490610e31565b909155505060008681526002602090815260408083206001600160a01b038616845290915281208054839290610917908490610e31565b90915550506040516001600160a01b0383169082156108fc029083906000818181858888f19350505050158015610952573d6000803e3d6000fd5b505050808061096090610ca3565b91505061087e565b5050600401805460ff1916905550565b6000818152600160205260408082206005810180549084905560048201805460ff1916905560028201549251919390926001600160a01b03169183156108fc0291849190818181858888f193505050501580156109d9573d6000803e3d6000fd5b50505050565b6000602082840312156109f157600080fd5b5035919050565b602080825282518282018190526000919060409081850190868401855b82811015610a4357815180516001600160a01b03168552860151868501529284019290850190600101610a15565b5091979650505050505050565b60008060408385031215610a6357600080fd5b8235915060208301356001600160a01b0381168114610a8157600080fd5b809150509250929050565b634e487b7160e01b600052604160045260246000fd5b600080600060608486031215610ab757600080fd5b833567ffffffffffffffff80821115610acf57600080fd5b818601915086601f830112610ae357600080fd5b813581811115610af557610af5610a8c565b604051601f8201601f19908116603f01168101908382118183101715610b1d57610b1d610a8c565b81604052828152896020848701011115610b3657600080fd5b82602086016020830137600060208483010152809750505050505060208401359150604084013590509250925092565b6000815180845260005b81811015610b8c57602081850181015186830182015201610b70565b506000602082860101526020601f19601f83011685010191505092915050565b60006020808352835160e082850152610bc9610100850182610b66565b9050818501516040850152604085015160018060a01b038082166060870152606087015160808701526080870151151560a087015260a087015160c087015260c08701519150601f198684030160e087015282825180855285850191508584019450600093505b80841015610c5257845183168252938501936001939093019290850190610c30565b50979650505050505050565b634e487b7160e01b600052601160045260246000fd5b80820180821115610c8757610c87610c5e565b92915050565b634e487b7160e01b600052603260045260246000fd5b600060018201610cb557610cb5610c5e565b5060010190565b600181811c90821680610cd057607f821691505b602082108103610cf057634e487b7160e01b600052602260045260246000fd5b50919050565b601f821115610d4057600081815260208120601f850160051c81016020861015610d1d5750805b601f850160051c820191505b81811015610d3c57828155600101610d29565b5050505b505050565b815167ffffffffffffffff811115610d5f57610d5f610a8c565b610d7381610d6d8454610cbc565b84610cf6565b602080601f831160018114610da85760008415610d905750858301515b600019600386901b1c1916600185901b178555610d3c565b600085815260208120601f198616915b82811015610dd757888601518255948401946001909101908401610db8565b5085821015610df55787850151600019600388901b60f8161c191681555b5050505050600190811b01905550565b848152608060208201526000610e1e6080830186610b66565b6040830194909452506060015292915050565b81810381811115610c8757610c87610c5e56fea2646970667358221220fb596a99b627ce0aa690bf292d5e282b5da7c72f3046e5925abb6a2389e8a1a064736f6c63430008130033",
    "linkReferences": {}
  },
  "methodIdentifiers": {
    "campaignEnds(uint256)": "62a7381e",
    "contribute(uint256,address)": "60b0b0f0",
    "contributeEth(uint256)": "352d722f",
    "getContributors(uint256)": "3c1ab00f",
    "getCrowd(uint256)": "8b3f1608",
    "hasContributed(uint256,address)": "b5b96ae0",
    "id()": "af640d0f",
    "proposeCampaign(string,uint256,uint256)": "6258cd87"
  },
  "id": 20
}